{
  "_format": "hh-sol-artifact-1",
  "contractName": "DocumentRegistry",
  "sourceName": "contracts/DocumentRegistry.sol",
  "abi": [
    {
      "inputs": [],
      "stateMutability": "nonpayable",
      "type": "constructor"
    },
    {
      "anonymous": false,
      "inputs": [
        {
          "indexed": true,
          "internalType": "string",
          "name": "documentId",
          "type": "string"
        },
        {
          "indexed": false,
          "internalType": "string",
          "name": "hash",
          "type": "string"
        },
        {
          "indexed": false,
          "internalType": "string",
          "name": "uploaderId",
          "type": "string"
        },
        {
          "indexed": false,
          "internalType": "uint256",
          "name": "version",
          "type": "uint256"
        },
        {
          "indexed": false,
          "internalType": "uint256",
          "name": "timestamp",
          "type": "uint256"
        }
      ],
      "name": "DocumentRegistered",
      "type": "event"
    },
    {
      "anonymous": false,
      "inputs": [
        {
          "indexed": true,
          "internalType": "string",
          "name": "documentId",
          "type": "string"
        },
        {
          "indexed": false,
          "internalType": "string",
          "name": "hash",
          "type": "string"
        },
        {
          "indexed": false,
          "internalType": "string",
          "name": "uploaderId",
          "type": "string"
        },
        {
          "indexed": false,
          "internalType": "uint256",
          "name": "version",
          "type": "uint256"
        },
        {
          "indexed": false,
          "internalType": "uint256",
          "name": "timestamp",
          "type": "uint256"
        }
      ],
      "name": "DocumentUpdated",
      "type": "event"
    },
    {
      "inputs": [
        {
          "internalType": "string",
          "name": "",
          "type": "string"
        },
        {
          "internalType": "uint256",
          "name": "",
          "type": "uint256"
        }
      ],
      "name": "documentVersions",
      "outputs": [
        {
          "internalType": "string",
          "name": "hash",
          "type": "string"
        },
        {
          "internalType": "string",
          "name": "uploaderId",
          "type": "string"
        },
        {
          "internalType": "uint256",
          "name": "timestamp",
          "type": "uint256"
        },
        {
          "internalType": "uint256",
          "name": "version",
          "type": "uint256"
        }
      ],
      "stateMutability": "view",
      "type": "function"
    },
    {
      "inputs": [
        {
          "internalType": "string",
          "name": "_documentId",
          "type": "string"
        }
      ],
      "name": "getDocumentHash",
      "outputs": [
        {
          "internalType": "string",
          "name": "",
          "type": "string"
        }
      ],
      "stateMutability": "view",
      "type": "function"
    },
    {
      "inputs": [
        {
          "internalType": "string",
          "name": "_documentId",
          "type": "string"
        }
      ],
      "name": "getDocumentHistory",
      "outputs": [
        {
          "components": [
            {
              "internalType": "string",
              "name": "hash",
              "type": "string"
            },
            {
              "internalType": "string",
              "name": "uploaderId",
              "type": "string"
            },
            {
              "internalType": "uint256",
              "name": "timestamp",
              "type": "uint256"
            },
            {
              "internalType": "uint256",
              "name": "version",
              "type": "uint256"
            }
          ],
          "internalType": "struct DocumentRegistry.DocumentData[]",
          "name": "",
          "type": "tuple[]"
        }
      ],
      "stateMutability": "view",
      "type": "function"
    },
    {
      "inputs": [],
      "name": "owner",
      "outputs": [
        {
          "internalType": "address",
          "name": "",
          "type": "address"
        }
      ],
      "stateMutability": "view",
      "type": "function"
    },
    {
      "inputs": [
        {
          "internalType": "string",
          "name": "_documentId",
          "type": "string"
        },
        {
          "internalType": "string",
          "name": "_hash",
          "type": "string"
        },
        {
          "internalType": "string",
          "name": "_uploaderId",
          "type": "string"
        }
      ],
      "name": "registerDocument",
      "outputs": [],
      "stateMutability": "nonpayable",
      "type": "function"
    },
    {
      "inputs": [
        {
          "internalType": "string",
          "name": "_documentId",
          "type": "string"
        },
        {
          "internalType": "string",
          "name": "_newHash",
          "type": "string"
        },
        {
          "internalType": "string",
          "name": "_uploaderId",
          "type": "string"
        }
      ],
      "name": "updateDocumentVersion",
      "outputs": [],
      "stateMutability": "nonpayable",
      "type": "function"
    },
    {
      "inputs": [
        {
          "internalType": "string",
          "name": "_documentId",
          "type": "string"
        },
        {
          "internalType": "string",
          "name": "_hash",
          "type": "string"
        }
      ],
      "name": "verifyDocument",
      "outputs": [
        {
          "internalType": "bool",
          "name": "",
          "type": "bool"
        },
        {
          "internalType": "uint256",
          "name": "",
          "type": "uint256"
        }
      ],
      "stateMutability": "view",
      "type": "function"
    }
  ],
  "bytecode": "0x608060405234801561001057600080fd5b5033600160006101000a81548173ffffffffffffffffffffffffffffffffffffffff021916908373ffffffffffffffffffffffffffffffffffffffff160217905550611a08806100616000396000f3fe608060405234801561001057600080fd5b506004361061007d5760003560e01c80638da5cb5b1161005b5780638da5cb5b146100ea578063a4ca650b14610108578063a990114c14610139578063bb6ccd941461016c5761007d565b80630b2d8bf31461008257806313a3d9a11461009e57806372e69752146100ba575b600080fd5b61009c60048036038101906100979190610e57565b61019c565b005b6100b860048036038101906100b39190610e57565b6103ca565b005b6100d460048036038101906100cf9190610efe565b6105c7565b6040516100e1919061110b565b60405180910390f35b6100f261077c565b6040516100ff919061116e565b60405180910390f35b610122600480360381019061011d9190611189565b6107a2565b60405161013092919061122b565b60405180910390f35b610153600480360381019061014e9190611280565b610a21565b6040516101639493929190611326565b60405180910390f35b61018660048036038101906101819190610efe565b610b94565b6040516101939190611379565b60405180910390f35b600160009054906101000a900473ffffffffffffffffffffffffffffffffffffffff1673ffffffffffffffffffffffffffffffffffffffff163373ffffffffffffffffffffffffffffffffffffffff161461022c576040517f08c379a00000000000000000000000000000000000000000000000000000000081526004016102239061140d565b60405180910390fd5b6000808460405161023d9190611469565b9081526020016040518091039020805490501161028f576040517f08c379a0000000000000000000000000000000000000000000000000000000008152600401610286906114cc565b60405180910390fd5b600060016000856040516102a39190611469565b9081526020016040518091039020805490506102bf919061151b565b9050600060405180608001604052808581526020018481526020014281526020018381525090506000856040516102f69190611469565b90815260200160405180910390208190806001815401808255809150506001900390600052602060002090600402016000909190919091506000820151816000019081610343919061175b565b506020820151816001019081610359919061175b565b50604082015181600201556060820151816003015550508460405161037e9190611469565b60405180910390207f8b606db65ee3f1fb5ae88e038fe3a985866259445d8747e87f7f264ea01a3152858585426040516103bb9493929190611326565b60405180910390a25050505050565b600160009054906101000a900473ffffffffffffffffffffffffffffffffffffffff1673ffffffffffffffffffffffffffffffffffffffff163373ffffffffffffffffffffffffffffffffffffffff161461045a576040517f08c379a00000000000000000000000000000000000000000000000000000000081526004016104519061140d565b60405180910390fd5b6000808460405161046b9190611469565b908152602001604051809103902080549050146104bd576040517f08c379a00000000000000000000000000000000000000000000000000000000081526004016104b490611879565b60405180910390fd5b60006040518060800160405280848152602001838152602001428152602001600181525090506000846040516104f39190611469565b90815260200160405180910390208190806001815401808255809150506001900390600052602060002090600402016000909190919091506000820151816000019081610540919061175b565b506020820151816001019081610556919061175b565b50604082015181600201556060820151816003015550508360405161057b9190611469565b60405180910390207f98a3795e19b4e1b26191a81c7a74b9ae81645ce0f12838e32a8353e73760c00b84846001426040516105b994939291906118d4565b60405180910390a250505050565b60606000826040516105d99190611469565b9081526020016040518091039020805480602002602001604051908101604052809291908181526020016000905b82821015610771578382906000526020600020906004020160405180608001604052908160008201805461063a9061157e565b80601f01602080910402602001604051908101604052809291908181526020018280546106669061157e565b80156106b35780601f10610688576101008083540402835291602001916106b3565b820191906000526020600020905b81548152906001019060200180831161069657829003601f168201915b505050505081526020016001820180546106cc9061157e565b80601f01602080910402602001604051908101604052809291908181526020018280546106f89061157e565b80156107455780601f1061071a57610100808354040283529160200191610745565b820191906000526020600020905b81548152906001019060200180831161072857829003601f168201915b505050505081526020016002820154815260200160038201548152505081526020019060010190610607565b505050509050919050565b600160009054906101000a900473ffffffffffffffffffffffffffffffffffffffff1681565b600080600080856040516107b69190611469565b9081526020016040518091039020805480602002602001604051908101604052809291908181526020016000905b8282101561094e57838290600052602060002090600402016040518060800160405290816000820180546108179061157e565b80601f01602080910402602001604051908101604052809291908181526020018280546108439061157e565b80156108905780601f1061086557610100808354040283529160200191610890565b820191906000526020600020905b81548152906001019060200180831161087357829003601f168201915b505050505081526020016001820180546108a99061157e565b80601f01602080910402602001604051908101604052809291908181526020018280546108d59061157e565b80156109225780601f106108f757610100808354040283529160200191610922565b820191906000526020600020905b81548152906001019060200180831161090557829003601f168201915b5050505050815260200160028201548152602001600382015481525050815260200190600101906107e4565b50505050905060005b8151811015610a1057846040516020016109719190611469565b6040516020818303038152906040528051906020012082828151811061099a57610999611927565b5b6020026020010151600001516040516020016109b69190611469565b60405160208183030381529060405280519060200120036109fd5760018282815181106109e6576109e5611927565b5b602002602001015160600151935093505050610a1a565b8080610a0890611956565b915050610957565b5060008092509250505b9250929050565b6000828051602081018201805184825260208301602085012081835280955050505050508181548110610a5357600080fd5b906000526020600020906004020160009150915050806000018054610a779061157e565b80601f0160208091040260200160405190810160405280929190818152602001828054610aa39061157e565b8015610af05780601f10610ac557610100808354040283529160200191610af0565b820191906000526020600020905b815481529060010190602001808311610ad357829003601f168201915b505050505090806001018054610b059061157e565b80601f0160208091040260200160405190810160405280929190818152602001828054610b319061157e565b8015610b7e5780601f10610b5357610100808354040283529160200191610b7e565b820191906000526020600020905b815481529060010190602001808311610b6157829003601f168201915b5050505050908060020154908060030154905084565b606060008083604051610ba79190611469565b90815260200160405180910390208054905011610bf9576040517f08c379a0000000000000000000000000000000000000000000000000000000008152600401610bf0906114cc565b60405180910390fd5b60006001600084604051610c0d9190611469565b908152602001604051809103902080549050610c29919061199e565b9050600083604051610c3b9190611469565b90815260200160405180910390208181548110610c5b57610c5a611927565b5b90600052602060002090600402016000018054610c779061157e565b80601f0160208091040260200160405190810160405280929190818152602001828054610ca39061157e565b8015610cf05780601f10610cc557610100808354040283529160200191610cf0565b820191906000526020600020905b815481529060010190602001808311610cd357829003601f168201915b5050505050915050919050565b6000604051905090565b600080fd5b600080fd5b600080fd5b600080fd5b6000601f19601f8301169050919050565b7f4e487b7100000000000000000000000000000000000000000000000000000000600052604160045260246000fd5b610d6482610d1b565b810181811067ffffffffffffffff82111715610d8357610d82610d2c565b5b80604052505050565b6000610d96610cfd565b9050610da28282610d5b565b919050565b600067ffffffffffffffff821115610dc257610dc1610d2c565b5b610dcb82610d1b565b9050602081019050919050565b82818337600083830152505050565b6000610dfa610df584610da7565b610d8c565b905082815260208101848484011115610e1657610e15610d16565b5b610e21848285610dd8565b509392505050565b600082601f830112610e3e57610e3d610d11565b5b8135610e4e848260208601610de7565b91505092915050565b600080600060608486031215610e7057610e6f610d07565b5b600084013567ffffffffffffffff811115610e8e57610e8d610d0c565b5b610e9a86828701610e29565b935050602084013567ffffffffffffffff811115610ebb57610eba610d0c565b5b610ec786828701610e29565b925050604084013567ffffffffffffffff811115610ee857610ee7610d0c565b5b610ef486828701610e29565b9150509250925092565b600060208284031215610f1457610f13610d07565b5b600082013567ffffffffffffffff811115610f3257610f31610d0c565b5b610f3e84828501610e29565b91505092915050565b600081519050919050565b600082825260208201905092915050565b6000819050602082019050919050565b600081519050919050565b600082825260208201905092915050565b60005b83811015610fad578082015181840152602081019050610f92565b60008484015250505050565b6000610fc482610f73565b610fce8185610f7e565b9350610fde818560208601610f8f565b610fe781610d1b565b840191505092915050565b6000819050919050565b61100581610ff2565b82525050565b600060808301600083015184820360008601526110288282610fb9565b915050602083015184820360208601526110428282610fb9565b91505060408301516110576040860182610ffc565b50606083015161106a6060860182610ffc565b508091505092915050565b6000611081838361100b565b905092915050565b6000602082019050919050565b60006110a182610f47565b6110ab8185610f52565b9350836020820285016110bd85610f63565b8060005b858110156110f957848403895281516110da8582611075565b94506110e583611089565b925060208a019950506001810190506110c1565b50829750879550505050505092915050565b600060208201905081810360008301526111258184611096565b905092915050565b600073ffffffffffffffffffffffffffffffffffffffff82169050919050565b60006111588261112d565b9050919050565b6111688161114d565b82525050565b6000602082019050611183600083018461115f565b92915050565b600080604083850312156111a05761119f610d07565b5b600083013567ffffffffffffffff8111156111be576111bd610d0c565b5b6111ca85828601610e29565b925050602083013567ffffffffffffffff8111156111eb576111ea610d0c565b5b6111f785828601610e29565b9150509250929050565b60008115159050919050565b61121681611201565b82525050565b61122581610ff2565b82525050565b6000604082019050611240600083018561120d565b61124d602083018461121c565b9392505050565b61125d81610ff2565b811461126857600080fd5b50565b60008135905061127a81611254565b92915050565b6000806040838503121561129757611296610d07565b5b600083013567ffffffffffffffff8111156112b5576112b4610d0c565b5b6112c185828601610e29565b92505060206112d28582860161126b565b9150509250929050565b600082825260208201905092915050565b60006112f882610f73565b61130281856112dc565b9350611312818560208601610f8f565b61131b81610d1b565b840191505092915050565b6000608082019050818103600083015261134081876112ed565b9050818103602083015261135481866112ed565b9050611363604083018561121c565b611370606083018461121c565b95945050505050565b6000602082019050818103600083015261139381846112ed565b905092915050565b7f4f6e6c79206f776e65722063616e20706572666f726d2074686973206163746960008201527f6f6e000000000000000000000000000000000000000000000000000000000000602082015250565b60006113f76022836112dc565b91506114028261139b565b604082019050919050565b60006020820190508181036000830152611426816113ea565b9050919050565b600081905092915050565b600061144382610f73565b61144d818561142d565b935061145d818560208601610f8f565b80840191505092915050565b60006114758284611438565b915081905092915050565b7f446f63756d656e7420646f6573206e6f74206578697374000000000000000000600082015250565b60006114b66017836112dc565b91506114c182611480565b602082019050919050565b600060208201905081810360008301526114e5816114a9565b9050919050565b7f4e487b7100000000000000000000000000000000000000000000000000000000600052601160045260246000fd5b600061152682610ff2565b915061153183610ff2565b9250828201905080821115611549576115486114ec565b5b92915050565b7f4e487b7100000000000000000000000000000000000000000000000000000000600052602260045260246000fd5b6000600282049050600182168061159657607f821691505b6020821081036115a9576115a861154f565b5b50919050565b60008190508160005260206000209050919050565b60006020601f8301049050919050565b600082821b905092915050565b6000600883026116117fffffffffffffffffffffffffffffffffffffffffffffffffffffffffffffffff826115d4565b61161b86836115d4565b95508019841693508086168417925050509392505050565b6000819050919050565b600061165861165361164e84610ff2565b611633565b610ff2565b9050919050565b6000819050919050565b6116728361163d565b61168661167e8261165f565b8484546115e1565b825550505050565b600090565b61169b61168e565b6116a6818484611669565b505050565b5b818110156116ca576116bf600082611693565b6001810190506116ac565b5050565b601f82111561170f576116e0816115af565b6116e9846115c4565b810160208510156116f8578190505b61170c611704856115c4565b8301826116ab565b50505b505050565b600082821c905092915050565b600061173260001984600802611714565b1980831691505092915050565b600061174b8383611721565b9150826002028217905092915050565b61176482610f73565b67ffffffffffffffff81111561177d5761177c610d2c565b5b611787825461157e565b6117928282856116ce565b600060209050601f8311600181146117c557600084156117b3578287015190505b6117bd858261173f565b865550611825565b601f1984166117d3866115af565b60005b828110156117fb578489015182556001820191506020850194506020810190506117d6565b868310156118185784890151611814601f891682611721565b8355505b6001600288020188555050505b505050505050565b7f446f63756d656e7420616c726561647920657869737473000000000000000000600082015250565b60006118636017836112dc565b915061186e8261182d565b602082019050919050565b6000602082019050818103600083015261189281611856565b9050919050565b6000819050919050565b60006118be6118b96118b484611899565b611633565b610ff2565b9050919050565b6118ce816118a3565b82525050565b600060808201905081810360008301526118ee81876112ed565b9050818103602083015261190281866112ed565b905061191160408301856118c5565b61191e606083018461121c565b95945050505050565b7f4e487b7100000000000000000000000000000000000000000000000000000000600052603260045260246000fd5b600061196182610ff2565b91507fffffffffffffffffffffffffffffffffffffffffffffffffffffffffffffffff8203611993576119926114ec565b5b600182019050919050565b60006119a982610ff2565b91506119b483610ff2565b92508282039050818111156119cc576119cb6114ec565b5b9291505056fea2646970667358221220c3449ebbe9392f3162e4eb38805bb2790d1e4f78cb991e2a0320c57a9afbc8f964736f6c63430008130033",
  "linkReferences": {},
  "deployedLinkReferences": {}
}