{
  "_format": "hh-sol-artifact-1",
  "contractName": "DocumentRegistry",
  "sourceName": "contracts/DocumentRegistry.sol",
  "abi": [
    {
      "inputs": [],
      "stateMutability": "nonpayable",
      "type": "constructor"
    },
    {
      "anonymous": false,
      "inputs": [
        {
          "indexed": true,
          "internalType": "string",
          "name": "documentId",
          "type": "string"
        },
        {
          "indexed": false,
          "internalType": "string",
          "name": "userId",
          "type": "string"
        },
        {
          "indexed": false,
          "internalType": "string",
          "name": "actionType",
          "type": "string"
        },
        {
          "indexed": false,
          "internalType": "uint256",
          "name": "timestamp",
          "type": "uint256"
        }
      ],
      "name": "AccessLogged",
      "type": "event"
    },
    {
      "anonymous": false,
      "inputs": [
        {
          "indexed": true,
          "internalType": "string",
          "name": "documentId",
          "type": "string"
        },
        {
          "indexed": false,
          "internalType": "string",
          "name": "hash",
          "type": "string"
        },
        {
          "indexed": false,
          "internalType": "string",
          "name": "uploaderId",
          "type": "string"
        },
        {
          "indexed": false,
          "internalType": "uint256",
          "name": "version",
          "type": "uint256"
        },
        {
          "indexed": false,
          "internalType": "uint256",
          "name": "timestamp",
          "type": "uint256"
        }
      ],
      "name": "DocumentRegistered",
      "type": "event"
    },
    {
      "anonymous": false,
      "inputs": [
        {
          "indexed": true,
          "internalType": "string",
          "name": "documentId",
          "type": "string"
        },
        {
          "indexed": false,
          "internalType": "string",
          "name": "signerId",
          "type": "string"
        },
        {
          "indexed": false,
          "internalType": "string",
          "name": "signatureHash",
          "type": "string"
        },
        {
          "indexed": false,
          "internalType": "string",
          "name": "role",
          "type": "string"
        },
        {
          "indexed": false,
          "internalType": "uint256",
          "name": "timestamp",
          "type": "uint256"
        }
      ],
      "name": "DocumentSigned",
      "type": "event"
    },
    {
      "anonymous": false,
      "inputs": [
        {
          "indexed": true,
          "internalType": "string",
          "name": "documentId",
          "type": "string"
        },
        {
          "indexed": false,
          "internalType": "string",
          "name": "hash",
          "type": "string"
        },
        {
          "indexed": false,
          "internalType": "string",
          "name": "uploaderId",
          "type": "string"
        },
        {
          "indexed": false,
          "internalType": "uint256",
          "name": "version",
          "type": "uint256"
        },
        {
          "indexed": false,
          "internalType": "uint256",
          "name": "timestamp",
          "type": "uint256"
        }
      ],
      "name": "DocumentUpdated",
      "type": "event"
    },
    {
      "inputs": [
        {
          "internalType": "string",
          "name": "",
          "type": "string"
        },
        {
          "internalType": "uint256",
          "name": "",
          "type": "uint256"
        }
      ],
      "name": "accessLogs",
      "outputs": [
        {
          "internalType": "string",
          "name": "userId",
          "type": "string"
        },
        {
          "internalType": "string",
          "name": "actionType",
          "type": "string"
        },
        {
          "internalType": "uint256",
          "name": "timestamp",
          "type": "uint256"
        }
      ],
      "stateMutability": "view",
      "type": "function"
    },
    {
      "inputs": [
        {
          "internalType": "string",
          "name": "",
          "type": "string"
        },
        {
          "internalType": "uint256",
          "name": "",
          "type": "uint256"
        }
      ],
      "name": "documentSignatures",
      "outputs": [
        {
          "internalType": "string",
          "name": "signerId",
          "type": "string"
        },
        {
          "internalType": "string",
          "name": "signatureHash",
          "type": "string"
        },
        {
          "internalType": "string",
          "name": "role",
          "type": "string"
        },
        {
          "internalType": "uint256",
          "name": "timestamp",
          "type": "uint256"
        }
      ],
      "stateMutability": "view",
      "type": "function"
    },
    {
      "inputs": [
        {
          "internalType": "string",
          "name": "",
          "type": "string"
        },
        {
          "internalType": "uint256",
          "name": "",
          "type": "uint256"
        }
      ],
      "name": "documentVersions",
      "outputs": [
        {
          "internalType": "string",
          "name": "hash",
          "type": "string"
        },
        {
          "internalType": "string",
          "name": "uploaderId",
          "type": "string"
        },
        {
          "internalType": "uint256",
          "name": "timestamp",
          "type": "uint256"
        },
        {
          "internalType": "uint256",
          "name": "version",
          "type": "uint256"
        }
      ],
      "stateMutability": "view",
      "type": "function"
    },
    {
      "inputs": [
        {
          "internalType": "string",
          "name": "_documentId",
          "type": "string"
        }
      ],
      "name": "getAccessLogs",
      "outputs": [
        {
          "components": [
            {
              "internalType": "string",
              "name": "userId",
              "type": "string"
            },
            {
              "internalType": "string",
              "name": "actionType",
              "type": "string"
            },
            {
              "internalType": "uint256",
              "name": "timestamp",
              "type": "uint256"
            }
          ],
          "internalType": "struct DocumentRegistry.AccessLog[]",
          "name": "",
          "type": "tuple[]"
        }
      ],
      "stateMutability": "view",
      "type": "function"
    },
    {
      "inputs": [
        {
          "internalType": "string",
          "name": "_documentId",
          "type": "string"
        }
      ],
      "name": "getDocumentHash",
      "outputs": [
        {
          "internalType": "string",
          "name": "",
          "type": "string"
        }
      ],
      "stateMutability": "view",
      "type": "function"
    },
    {
      "inputs": [
        {
          "internalType": "string",
          "name": "_documentId",
          "type": "string"
        }
      ],
      "name": "getDocumentHistory",
      "outputs": [
        {
          "components": [
            {
              "internalType": "string",
              "name": "hash",
              "type": "string"
            },
            {
              "internalType": "string",
              "name": "uploaderId",
              "type": "string"
            },
            {
              "internalType": "uint256",
              "name": "timestamp",
              "type": "uint256"
            },
            {
              "internalType": "uint256",
              "name": "version",
              "type": "uint256"
            }
          ],
          "internalType": "struct DocumentRegistry.DocumentData[]",
          "name": "",
          "type": "tuple[]"
        }
      ],
      "stateMutability": "view",
      "type": "function"
    },
    {
      "inputs": [
        {
          "internalType": "string",
          "name": "_documentId",
          "type": "string"
        }
      ],
      "name": "getSignatures",
      "outputs": [
        {
          "components": [
            {
              "internalType": "string",
              "name": "signerId",
              "type": "string"
            },
            {
              "internalType": "string",
              "name": "signatureHash",
              "type": "string"
            },
            {
              "internalType": "string",
              "name": "role",
              "type": "string"
            },
            {
              "internalType": "uint256",
              "name": "timestamp",
              "type": "uint256"
            }
          ],
          "internalType": "struct DocumentRegistry.SignatureData[]",
          "name": "",
          "type": "tuple[]"
        }
      ],
      "stateMutability": "view",
      "type": "function"
    },
    {
      "inputs": [
        {
          "internalType": "string",
          "name": "_documentId",
          "type": "string"
        },
        {
          "internalType": "string",
          "name": "_userId",
          "type": "string"
        },
        {
          "internalType": "string",
          "name": "_actionType",
          "type": "string"
        }
      ],
      "name": "logAccess",
      "outputs": [],
      "stateMutability": "nonpayable",
      "type": "function"
    },
    {
      "inputs": [],
      "name": "owner",
      "outputs": [
        {
          "internalType": "address",
          "name": "",
          "type": "address"
        }
      ],
      "stateMutability": "view",
      "type": "function"
    },
    {
      "inputs": [
        {
          "internalType": "string",
          "name": "_documentId",
          "type": "string"
        },
        {
          "internalType": "string",
          "name": "_hash",
          "type": "string"
        },
        {
          "internalType": "string",
          "name": "_uploaderId",
          "type": "string"
        }
      ],
      "name": "registerDocument",
      "outputs": [],
      "stateMutability": "nonpayable",
      "type": "function"
    },
    {
      "inputs": [
        {
          "internalType": "string",
          "name": "_documentId",
          "type": "string"
        },
        {
          "internalType": "string",
          "name": "_signerId",
          "type": "string"
        },
        {
          "internalType": "string",
          "name": "_signatureHash",
          "type": "string"
        },
        {
          "internalType": "string",
          "name": "_role",
          "type": "string"
        }
      ],
      "name": "signDocument",
      "outputs": [],
      "stateMutability": "nonpayable",
      "type": "function"
    },
    {
      "inputs": [
        {
          "internalType": "string",
          "name": "_documentId",
          "type": "string"
        },
        {
          "internalType": "string",
          "name": "_newHash",
          "type": "string"
        },
        {
          "internalType": "string",
          "name": "_uploaderId",
          "type": "string"
        }
      ],
      "name": "updateDocumentVersion",
      "outputs": [],
      "stateMutability": "nonpayable",
      "type": "function"
    },
    {
      "inputs": [
        {
          "internalType": "string",
          "name": "_documentId",
          "type": "string"
        },
        {
          "internalType": "string",
          "name": "_hash",
          "type": "string"
        }
      ],
      "name": "verifyDocument",
      "outputs": [
        {
          "internalType": "bool",
          "name": "",
          "type": "bool"
        },
        {
          "internalType": "uint256",
          "name": "",
          "type": "uint256"
        }
      ],
      "stateMutability": "view",
      "type": "function"
    }
  ],
  "bytecode": "0x608060405234801561001057600080fd5b5033600360006101000a81548173ffffffffffffffffffffffffffffffffffffffff021916908373ffffffffffffffffffffffffffffffffffffffff1602179055506129d8806100616000396000f3fe608060405234801561001057600080fd5b50600436106100cf5760003560e01c80638da5cb5b1161008c578063bb6ccd9411610066578063bb6ccd9414610251578063c0cbd4ec14610281578063d847b4ca1461029d578063e89ce5a1146102b9576100cf565b80638da5cb5b146101cf578063a4ca650b146101ed578063a990114c1461021e576100cf565b80630b2d8bf3146100d457806313a3d9a1146100f0578063142674151461010c5780632404608f1461013f5780634bc19d341461016f57806372e697521461019f575b600080fd5b6100ee60048036038101906100e99190611a21565b6102eb565b005b61010a60048036038101906101059190611a21565b610519565b005b61012660048036038101906101219190611afe565b610716565b6040516101369493929190611be8565b60405180910390f35b61015960048036038101906101549190611c42565b610911565b6040516101669190611e17565b60405180910390f35b61018960048036038101906101849190611c42565b610b4e565b6040516101969190611f52565b60405180910390f35b6101b960048036038101906101b49190611c42565b610cf9565b6040516101c691906120a0565b60405180910390f35b6101d7610eae565b6040516101e49190612103565b60405180910390f35b6102076004803603810190610202919061211e565b610ed4565b6040516102159291906121b1565b60405180910390f35b61023860048036038101906102339190611afe565b611153565b60405161024894939291906121da565b60405180910390f35b61026b60048036038101906102669190611c42565b6112c6565b604051610278919061222d565b60405180910390f35b61029b60048036038101906102969190611a21565b61142f565b005b6102b760048036038101906102b2919061224f565b6115b5565b005b6102d360048036038101906102ce9190611afe565b61175a565b6040516102e293929190612326565b60405180910390f35b600360009054906101000a900473ffffffffffffffffffffffffffffffffffffffff1673ffffffffffffffffffffffffffffffffffffffff163373ffffffffffffffffffffffffffffffffffffffff161461037b576040517f08c379a0000000000000000000000000000000000000000000000000000000008152600401610372906123dd565b60405180910390fd5b6000808460405161038c9190612439565b908152602001604051809103902080549050116103de576040517f08c379a00000000000000000000000000000000000000000000000000000000081526004016103d59061249c565b60405180910390fd5b600060016000856040516103f29190612439565b90815260200160405180910390208054905061040e91906124eb565b9050600060405180608001604052808581526020018481526020014281526020018381525090506000856040516104459190612439565b90815260200160405180910390208190806001815401808255809150506001900390600052602060002090600402016000909190919091506000820151816000019081610492919061272b565b5060208201518160010190816104a8919061272b565b5060408201518160020155606082015181600301555050846040516104cd9190612439565b60405180910390207f8b606db65ee3f1fb5ae88e038fe3a985866259445d8747e87f7f264ea01a31528585854260405161050a94939291906121da565b60405180910390a25050505050565b600360009054906101000a900473ffffffffffffffffffffffffffffffffffffffff1673ffffffffffffffffffffffffffffffffffffffff163373ffffffffffffffffffffffffffffffffffffffff16146105a9576040517f08c379a00000000000000000000000000000000000000000000000000000000081526004016105a0906123dd565b60405180910390fd5b600080846040516105ba9190612439565b9081526020016040518091039020805490501461060c576040517f08c379a000000000000000000000000000000000000000000000000000000000815260040161060390612849565b60405180910390fd5b60006040518060800160405280848152602001838152602001428152602001600181525090506000846040516106429190612439565b9081526020016040518091039020819080600181540180825580915050600190039060005260206000209060040201600090919091909150600082015181600001908161068f919061272b565b5060208201518160010190816106a5919061272b565b5060408201518160020155606082015181600301555050836040516106ca9190612439565b60405180910390207f98a3795e19b4e1b26191a81c7a74b9ae81645ce0f12838e32a8353e73760c00b848460014260405161070894939291906128a4565b60405180910390a250505050565b600282805160208101820180518482526020830160208501208183528095505050505050818154811061074857600080fd5b90600052602060002090600402016000915091505080600001805461076c9061254e565b80601f01602080910402602001604051908101604052809291908181526020018280546107989061254e565b80156107e55780601f106107ba576101008083540402835291602001916107e5565b820191906000526020600020905b8154815290600101906020018083116107c857829003601f168201915b5050505050908060010180546107fa9061254e565b80601f01602080910402602001604051908101604052809291908181526020018280546108269061254e565b80156108735780601f1061084857610100808354040283529160200191610873565b820191906000526020600020905b81548152906001019060200180831161085657829003601f168201915b5050505050908060020180546108889061254e565b80601f01602080910402602001604051908101604052809291908181526020018280546108b49061254e565b80156109015780601f106108d657610100808354040283529160200191610901565b820191906000526020600020905b8154815290600101906020018083116108e457829003601f168201915b5050505050908060030154905084565b60606002826040516109239190612439565b9081526020016040518091039020805480602002602001604051908101604052809291908181526020016000905b82821015610b4357838290600052602060002090600402016040518060800160405290816000820180546109849061254e565b80601f01602080910402602001604051908101604052809291908181526020018280546109b09061254e565b80156109fd5780601f106109d2576101008083540402835291602001916109fd565b820191906000526020600020905b8154815290600101906020018083116109e057829003601f168201915b50505050508152602001600182018054610a169061254e565b80601f0160208091040260200160405190810160405280929190818152602001828054610a429061254e565b8015610a8f5780601f10610a6457610100808354040283529160200191610a8f565b820191906000526020600020905b815481529060010190602001808311610a7257829003601f168201915b50505050508152602001600282018054610aa89061254e565b80601f0160208091040260200160405190810160405280929190818152602001828054610ad49061254e565b8015610b215780601f10610af657610100808354040283529160200191610b21565b820191906000526020600020905b815481529060010190602001808311610b0457829003601f168201915b5050505050815260200160038201548152505081526020019060010190610951565b505050509050919050565b6060600182604051610b609190612439565b9081526020016040518091039020805480602002602001604051908101604052809291908181526020016000905b82821015610cee5783829060005260206000209060030201604051806060016040529081600082018054610bc19061254e565b80601f0160208091040260200160405190810160405280929190818152602001828054610bed9061254e565b8015610c3a5780601f10610c0f57610100808354040283529160200191610c3a565b820191906000526020600020905b815481529060010190602001808311610c1d57829003601f168201915b50505050508152602001600182018054610c539061254e565b80601f0160208091040260200160405190810160405280929190818152602001828054610c7f9061254e565b8015610ccc5780601f10610ca157610100808354040283529160200191610ccc565b820191906000526020600020905b815481529060010190602001808311610caf57829003601f168201915b5050505050815260200160028201548152505081526020019060010190610b8e565b505050509050919050565b6060600082604051610d0b9190612439565b9081526020016040518091039020805480602002602001604051908101604052809291908181526020016000905b82821015610ea35783829060005260206000209060040201604051806080016040529081600082018054610d6c9061254e565b80601f0160208091040260200160405190810160405280929190818152602001828054610d989061254e565b8015610de55780601f10610dba57610100808354040283529160200191610de5565b820191906000526020600020905b815481529060010190602001808311610dc857829003601f168201915b50505050508152602001600182018054610dfe9061254e565b80601f0160208091040260200160405190810160405280929190818152602001828054610e2a9061254e565b8015610e775780601f10610e4c57610100808354040283529160200191610e77565b820191906000526020600020905b815481529060010190602001808311610e5a57829003601f168201915b505050505081526020016002820154815260200160038201548152505081526020019060010190610d39565b505050509050919050565b600360009054906101000a900473ffffffffffffffffffffffffffffffffffffffff1681565b60008060008085604051610ee89190612439565b9081526020016040518091039020805480602002602001604051908101604052809291908181526020016000905b828210156110805783829060005260206000209060040201604051806080016040529081600082018054610f499061254e565b80601f0160208091040260200160405190810160405280929190818152602001828054610f759061254e565b8015610fc25780601f10610f9757610100808354040283529160200191610fc2565b820191906000526020600020905b815481529060010190602001808311610fa557829003601f168201915b50505050508152602001600182018054610fdb9061254e565b80601f01602080910402602001604051908101604052809291908181526020018280546110079061254e565b80156110545780601f1061102957610100808354040283529160200191611054565b820191906000526020600020905b81548152906001019060200180831161103757829003601f168201915b505050505081526020016002820154815260200160038201548152505081526020019060010190610f16565b50505050905060005b815181101561114257846040516020016110a39190612439565b604051602081830303815290604052805190602001208282815181106110cc576110cb6128f7565b5b6020026020010151600001516040516020016110e89190612439565b604051602081830303815290604052805190602001200361112f576001828281518110611118576111176128f7565b5b60200260200101516060015193509350505061114c565b808061113a90612926565b915050611089565b5060008092509250505b9250929050565b600082805160208101820180518482526020830160208501208183528095505050505050818154811061118557600080fd5b9060005260206000209060040201600091509150508060000180546111a99061254e565b80601f01602080910402602001604051908101604052809291908181526020018280546111d59061254e565b80156112225780601f106111f757610100808354040283529160200191611222565b820191906000526020600020905b81548152906001019060200180831161120557829003601f168201915b5050505050908060010180546112379061254e565b80601f01602080910402602001604051908101604052809291908181526020018280546112639061254e565b80156112b05780601f10611285576101008083540402835291602001916112b0565b820191906000526020600020905b81548152906001019060200180831161129357829003601f168201915b5050505050908060020154908060030154905084565b6060600080836040516112d99190612439565b9081526020016040518091039020805490501161132b576040517f08c379a00000000000000000000000000000000000000000000000000000000081526004016113229061249c565b60405180910390fd5b6000600160008460405161133f9190612439565b90815260200160405180910390208054905061135b919061296e565b905060008360405161136d9190612439565b9081526020016040518091039020818154811061138d5761138c6128f7565b5b906000526020600020906004020160000180546113a99061254e565b80601f01602080910402602001604051908101604052809291908181526020018280546113d59061254e565b80156114225780601f106113f757610100808354040283529160200191611422565b820191906000526020600020905b81548152906001019060200180831161140557829003601f168201915b5050505050915050919050565b600360009054906101000a900473ffffffffffffffffffffffffffffffffffffffff1673ffffffffffffffffffffffffffffffffffffffff163373ffffffffffffffffffffffffffffffffffffffff16146114bf576040517f08c379a00000000000000000000000000000000000000000000000000000000081526004016114b6906123dd565b60405180910390fd5b600060405180606001604052808481526020018381526020014281525090506001846040516114ee9190612439565b9081526020016040518091039020819080600181540180825580915050600190039060005260206000209060030201600090919091909150600082015181600001908161153b919061272b565b506020820151816001019081611551919061272b565b506040820151816002015550508360405161156c9190612439565b60405180910390207fe1dc258fe631f4317459b98612812306764b6cd9195c58bdd465ddba5eac84cb8484426040516115a793929190612326565b60405180910390a250505050565b600360009054906101000a900473ffffffffffffffffffffffffffffffffffffffff1673ffffffffffffffffffffffffffffffffffffffff163373ffffffffffffffffffffffffffffffffffffffff1614611645576040517f08c379a000000000000000000000000000000000000000000000000000000000815260040161163c906123dd565b60405180910390fd5b6000604051806080016040528085815260200184815260200183815260200142815250905060028560405161167a9190612439565b908152602001604051809103902081908060018154018082558091505060019003906000526020600020906004020160009091909190915060008201518160000190816116c7919061272b565b5060208201518160010190816116dd919061272b565b5060408201518160020190816116f3919061272b565b506060820151816003015550508460405161170e9190612439565b60405180910390207f5fbc89b74ebd0b3fd3ebb53deda72d9af2ceffcdf74ddca5841c327265c70e758585854260405161174b9493929190611be8565b60405180910390a25050505050565b600182805160208101820180518482526020830160208501208183528095505050505050818154811061178c57600080fd5b9060005260206000209060030201600091509150508060000180546117b09061254e565b80601f01602080910402602001604051908101604052809291908181526020018280546117dc9061254e565b80156118295780601f106117fe57610100808354040283529160200191611829565b820191906000526020600020905b81548152906001019060200180831161180c57829003601f168201915b50505050509080600101805461183e9061254e565b80601f016020809104026020016040519081016040528092919081815260200182805461186a9061254e565b80156118b75780601f1061188c576101008083540402835291602001916118b7565b820191906000526020600020905b81548152906001019060200180831161189a57829003601f168201915b5050505050908060020154905083565b6000604051905090565b600080fd5b600080fd5b600080fd5b600080fd5b6000601f19601f8301169050919050565b7f4e487b7100000000000000000000000000000000000000000000000000000000600052604160045260246000fd5b61192e826118e5565b810181811067ffffffffffffffff8211171561194d5761194c6118f6565b5b80604052505050565b60006119606118c7565b905061196c8282611925565b919050565b600067ffffffffffffffff82111561198c5761198b6118f6565b5b611995826118e5565b9050602081019050919050565b82818337600083830152505050565b60006119c46119bf84611971565b611956565b9050828152602081018484840111156119e0576119df6118e0565b5b6119eb8482856119a2565b509392505050565b600082601f830112611a0857611a076118db565b5b8135611a188482602086016119b1565b91505092915050565b600080600060608486031215611a3a57611a396118d1565b5b600084013567ffffffffffffffff811115611a5857611a576118d6565b5b611a64868287016119f3565b935050602084013567ffffffffffffffff811115611a8557611a846118d6565b5b611a91868287016119f3565b925050604084013567ffffffffffffffff811115611ab257611ab16118d6565b5b611abe868287016119f3565b9150509250925092565b6000819050919050565b611adb81611ac8565b8114611ae657600080fd5b50565b600081359050611af881611ad2565b92915050565b60008060408385031215611b1557611b146118d1565b5b600083013567ffffffffffffffff811115611b3357611b326118d6565b5b611b3f858286016119f3565b9250506020611b5085828601611ae9565b9150509250929050565b600081519050919050565b600082825260208201905092915050565b60005b83811015611b94578082015181840152602081019050611b79565b60008484015250505050565b6000611bab82611b5a565b611bb58185611b65565b9350611bc5818560208601611b76565b611bce816118e5565b840191505092915050565b611be281611ac8565b82525050565b60006080820190508181036000830152611c028187611ba0565b90508181036020830152611c168186611ba0565b90508181036040830152611c2a8185611ba0565b9050611c396060830184611bd9565b95945050505050565b600060208284031215611c5857611c576118d1565b5b600082013567ffffffffffffffff811115611c7657611c756118d6565b5b611c82848285016119f3565b91505092915050565b600081519050919050565b600082825260208201905092915050565b6000819050602082019050919050565b600082825260208201905092915050565b6000611cd382611b5a565b611cdd8185611cb7565b9350611ced818560208601611b76565b611cf6816118e5565b840191505092915050565b611d0a81611ac8565b82525050565b60006080830160008301518482036000860152611d2d8282611cc8565b91505060208301518482036020860152611d478282611cc8565b91505060408301518482036040860152611d618282611cc8565b9150506060830151611d766060860182611d01565b508091505092915050565b6000611d8d8383611d10565b905092915050565b6000602082019050919050565b6000611dad82611c8b565b611db78185611c96565b935083602082028501611dc985611ca7565b8060005b85811015611e055784840389528151611de68582611d81565b9450611df183611d95565b925060208a01995050600181019050611dcd565b50829750879550505050505092915050565b60006020820190508181036000830152611e318184611da2565b905092915050565b600081519050919050565b600082825260208201905092915050565b6000819050602082019050919050565b60006060830160008301518482036000860152611e828282611cc8565b91505060208301518482036020860152611e9c8282611cc8565b9150506040830151611eb16040860182611d01565b508091505092915050565b6000611ec88383611e65565b905092915050565b6000602082019050919050565b6000611ee882611e39565b611ef28185611e44565b935083602082028501611f0485611e55565b8060005b85811015611f405784840389528151611f218582611ebc565b9450611f2c83611ed0565b925060208a01995050600181019050611f08565b50829750879550505050505092915050565b60006020820190508181036000830152611f6c8184611edd565b905092915050565b600081519050919050565b600082825260208201905092915050565b6000819050602082019050919050565b60006080830160008301518482036000860152611fbd8282611cc8565b91505060208301518482036020860152611fd78282611cc8565b9150506040830151611fec6040860182611d01565b506060830151611fff6060860182611d01565b508091505092915050565b60006120168383611fa0565b905092915050565b6000602082019050919050565b600061203682611f74565b6120408185611f7f565b93508360208202850161205285611f90565b8060005b8581101561208e578484038952815161206f858261200a565b945061207a8361201e565b925060208a01995050600181019050612056565b50829750879550505050505092915050565b600060208201905081810360008301526120ba818461202b565b905092915050565b600073ffffffffffffffffffffffffffffffffffffffff82169050919050565b60006120ed826120c2565b9050919050565b6120fd816120e2565b82525050565b600060208201905061211860008301846120f4565b92915050565b60008060408385031215612135576121346118d1565b5b600083013567ffffffffffffffff811115612153576121526118d6565b5b61215f858286016119f3565b925050602083013567ffffffffffffffff8111156121805761217f6118d6565b5b61218c858286016119f3565b9150509250929050565b60008115159050919050565b6121ab81612196565b82525050565b60006040820190506121c660008301856121a2565b6121d36020830184611bd9565b9392505050565b600060808201905081810360008301526121f48187611ba0565b905081810360208301526122088186611ba0565b90506122176040830185611bd9565b6122246060830184611bd9565b95945050505050565b600060208201905081810360008301526122478184611ba0565b905092915050565b60008060008060808587031215612269576122686118d1565b5b600085013567ffffffffffffffff811115612287576122866118d6565b5b612293878288016119f3565b945050602085013567ffffffffffffffff8111156122b4576122b36118d6565b5b6122c0878288016119f3565b935050604085013567ffffffffffffffff8111156122e1576122e06118d6565b5b6122ed878288016119f3565b925050606085013567ffffffffffffffff81111561230e5761230d6118d6565b5b61231a878288016119f3565b91505092959194509250565b600060608201905081810360008301526123408186611ba0565b905081810360208301526123548185611ba0565b90506123636040830184611bd9565b949350505050565b7f4f6e6c79206f776e65722063616e20706572666f726d2074686973206163746960008201527f6f6e000000000000000000000000000000000000000000000000000000000000602082015250565b60006123c7602283611b65565b91506123d28261236b565b604082019050919050565b600060208201905081810360008301526123f6816123ba565b9050919050565b600081905092915050565b600061241382611b5a565b61241d81856123fd565b935061242d818560208601611b76565b80840191505092915050565b60006124458284612408565b915081905092915050565b7f446f63756d656e7420646f6573206e6f74206578697374000000000000000000600082015250565b6000612486601783611b65565b915061249182612450565b602082019050919050565b600060208201905081810360008301526124b581612479565b9050919050565b7f4e487b7100000000000000000000000000000000000000000000000000000000600052601160045260246000fd5b60006124f682611ac8565b915061250183611ac8565b9250828201905080821115612519576125186124bc565b5b92915050565b7f4e487b7100000000000000000000000000000000000000000000000000000000600052602260045260246000fd5b6000600282049050600182168061256657607f821691505b6020821081036125795761257861251f565b5b50919050565b60008190508160005260206000209050919050565b60006020601f8301049050919050565b600082821b905092915050565b6000600883026125e17fffffffffffffffffffffffffffffffffffffffffffffffffffffffffffffffff826125a4565b6125eb86836125a4565b95508019841693508086168417925050509392505050565b6000819050919050565b600061262861262361261e84611ac8565b612603565b611ac8565b9050919050565b6000819050919050565b6126428361260d565b61265661264e8261262f565b8484546125b1565b825550505050565b600090565b61266b61265e565b612676818484612639565b505050565b5b8181101561269a5761268f600082612663565b60018101905061267c565b5050565b601f8211156126df576126b08161257f565b6126b984612594565b810160208510156126c8578190505b6126dc6126d485612594565b83018261267b565b50505b505050565b600082821c905092915050565b6000612702600019846008026126e4565b1980831691505092915050565b600061271b83836126f1565b9150826002028217905092915050565b61273482611b5a565b67ffffffffffffffff81111561274d5761274c6118f6565b5b612757825461254e565b61276282828561269e565b600060209050601f8311600181146127955760008415612783578287015190505b61278d858261270f565b8655506127f5565b601f1984166127a38661257f565b60005b828110156127cb578489015182556001820191506020850194506020810190506127a6565b868310156127e857848901516127e4601f8916826126f1565b8355505b6001600288020188555050505b505050505050565b7f446f63756d656e7420616c726561647920657869737473000000000000000000600082015250565b6000612833601783611b65565b915061283e826127fd565b602082019050919050565b6000602082019050818103600083015261286281612826565b9050919050565b6000819050919050565b600061288e61288961288484612869565b612603565b611ac8565b9050919050565b61289e81612873565b82525050565b600060808201905081810360008301526128be8187611ba0565b905081810360208301526128d28186611ba0565b90506128e16040830185612895565b6128ee6060830184611bd9565b95945050505050565b7f4e487b7100000000000000000000000000000000000000000000000000000000600052603260045260246000fd5b600061293182611ac8565b91507fffffffffffffffffffffffffffffffffffffffffffffffffffffffffffffffff8203612963576129626124bc565b5b600182019050919050565b600061297982611ac8565b915061298483611ac8565b925082820390508181111561299c5761299b6124bc565b5b9291505056fea2646970667358221220adf2f0e8cf197e70544334c576e1858f3628e62b834139853ca72366fbc270b064736f6c63430008130033",
  "linkReferences": {},
  "deployedLinkReferences": {}
}